:020000040800F2
:1000000040050020450100084B130008B30D00080F
:100010004913000841030008E11400080000000033
:100020000000000000000000000000004D13000868
:100030004303000800000000D1010008511300082C
:100040005F0100085F0100085F0100085F01000810
:100050005F0100085F0100085F0100085F01000800
:100060005F0100085F0100085F0100085F010008F0
:100070005F0100085F0100085F0100085F010008E0
:100080005F0100085F0100085F0100085F010008D0
:100090005F0100085F0100085F0100085F010008C0
:1000A0005F0100085F0100085F0100085F010008B0
:1000B0005F0100085F0100085F0100085F010008A0
:1000C0005F0100085F0100085F0100085F01000890
:1000D0005F0100085F0100085F0100085F01000880
:1000E0005F0100085F0100085F0100085F01000870
:1000F0005F0100085F0100085F0100085F01000860
:100100005F0100085F0100085F0100085F0100084F
:100110005F0100085F0100085F0100085F0100083F
:100120005F0100085F0100085F0100085F0100082F
:10013000DFF80CD000F0F2F800480047C1190008C1
:10014000400500200648804706480047FEE7FEE7D6
:10015000FEE7FEE7FEE7FEE7FEE7FEE7FEE7FEE777
:10016000C31300083101000872B62C482C490268FC
:1001700041EA020101602B484FF0010101602A4869
:100180004168016001688A884FF0100342EA030267
:100190008A80D1F800C00CF1240CBCE8FF008CF37D
:1001A00009884FF0020C8CF31488AE4662B63047D3
:1001B000EFF3108072B67047EFF3108062B67047AD
:1001C00080F31088704719484FF0805101607047E4
:1001D000EFF3108C72B6164A126822B12DE9005066
:1001E0009047BDE80050EFF3098020E9F01F0E4D65
:1001F0004FF010082E683060B78827EA0807B780EC
:1002000068682860878847EA080787800168B1E83E
:10021000F01F81F309888CF31088704720ED00E00F
:100220000000FFFF400000204400002004ED00E03B
:10023000280000202DE9F05F0546002092469B46ED
:1002400088460646814640241BE0284641464746EC
:10025000224600F020F853465A46C01A914110D366
:1002600011461846224600F04AF82D1A67EB01089D
:100270004F4622460120002100F041F817EB00090B
:100280004E41201EA4F10104DFDC484631462A46D7
:100290004346BDE8F09F202A04DB203A21FA02F011
:1002A0000021704721FA02F3D040C2F120029140B0
:1002B00008431946704740EA01039B0703D009E051
:1002C00008C9121F08C0042AFAD203E011F8013B42
:1002D00000F8013B521EF9D27047D2B201E000F89B
:1002E000012B491EFBD270470022F6E710B51346DA
:1002F0000A4604461946FFF7F0FF204610BD202AA3
:1003000004DB203A00FA02F1002070479140C2F16C
:10031000200320FA03F3194390407047064C074D21
:1003200006E0E06840F0010394E8070098471034C5
:10033000AC42F6D3FFF700FFD8260008F8260008E5
:10034000FEE770477047000070B50BA001F0CAF8D7
:100350000F4D022000F074FE04460EA001F0C2F81A
:1003600024B112A001F0BEF8012070BD2021284662
:1003700000F036F9EDE70000456E746572205461B7
:10038000736B48692048616E646C65722E0D0A00BB
:10039000000C0140746869732069732061207465E2
:1003A0007374207468726561640D0A0044656C6141
:1003B00079205461736B204661696C65642E0D0A67
:1003C0000000000070B5044600F018F90546601CF6
:1003D00002D004480078044400F010F9401BA04209
:1003E000FAD370BDA80000202DE9F84FDFF8C891BE
:1003F000002409F1040A0AF1040B23460F270BF12C
:10040000040ED1E00125A54006EA0502AA4276D1F4
:10041000DFF8A8C14E68A6EB0C0866452BD00DDCB2
:10042000032E34D005DC36B3012E19D0022E2FD185
:100430001BE0112E16D0122E2AD119E0B8F5881F14
:1004400019D006DCB8F5803F15D0B8F5801F1FD154
:1004500011E0B8F5001F0ED0B8F5041F18D10AE05E
:10046000CB6815E0CB681B1D12E0CB6808330FE0AA
:10047000CB680C330CE08B682BB1012B4FF00803D9
:1004800003D0456104E0042302E0056100E000239D
:10049000FF2A01D8064601E000F104064FEA840570
:1004A00001D9A5F12005D6F8008007FA05FC28EA55
:1004B0000C0803FA05F548EA0508C6F800804D68FF
:1004C000ED0070D53E4DAE6946F00106AE61AD69F6
:1004D00024F0030605F0010500953A4D06EB050CE6
:1004E000DCF80850A607360F07FA06F825EA0805D3
:1004F000DFF8D480404503D14FF0000825E052E0FA
:10050000DFF8C880404502D14FF001081DE0DFF858
:10051000C080404502D14FF0020816E0DFF8B480F9
:10052000404502D14FF003080FE0DFF8AC804045B2
:1005300002D14FF0040808E0DFF8A080404502D166
:100540004FF0050801E04FF0060808FA06F848EAFF
:100550000508CCF808804D68D9F80060ED034D46D9
:1005600001D5164300E096432E604D68DAF800602E
:10057000AD03554601D5164300E096432E604D6805
:10058000DBF80060ED025D4601D5164300E09643BE
:100590002E604D68DEF80060AD02754601D5164349
:1005A00000E096432E60641C0A681646E2407FF421
:1005B00029AFBDE8F88F00000004014000001110D1
:1005C000001002400000014000080140000C014002
:1005D000001001400014014000180140001C0140BF
:1005E000C26821EA02030A4043EA024101617047FE
:1005F0000AB1016170470904FBE700000148806807
:1006000070470000A8000020074810B5016841F0BD
:1006100010010160032000F067F8002000F006F8E8
:1006200000F024F8002010BD0020024070B50D4DF0
:1006300004464FF47A712878B1FBF0F00A49096852
:10064000B1FBF0F000F0DEFA48B9102C07D200221E
:100650002146501E00F028F800206C6070BD01207B
:1006600070BD0000A8000020B40000200C4808B5B0
:10067000816941F001018161816901F0010100910D
:10068000C16941F08051C161C06900F080500090A3
:100690000448416821F0E06141F00071416008BD0B
:1006A0000010024000000140F0B40E4B1B680C46E5
:1006B000C3F30223C3F10705042D00D90425191D36
:1006C000072901D2002300E0DB1E012606FA05F10E
:1006D000491E214099409E40761E16403143F0BC91
:1006E00000F010BF0CED00E0064900F007020868BA
:1006F0004FF6FF03184040EA0220034A1043086007
:10070000704700000CED00E00000FA052DE9F0470D
:100710000F46050061D0434E306800F00700B84234
:1007200009D2306820F0070038433060306800F0AC
:100730000700B84251D128683B4C810712D54007C9
:1007400003D5606840F4E06060602878000703D556
:10075000606840F4605060606068A96820F0F00054
:10076000084360602878C00728D06868012810D046
:100770002168022810D0890700292EDA616821F04B
:10078000030101436160FFF739FF804641F2883978
:100790000DE021688903EFE78901EDE7FFF72EFF00
:1007A000A0EB0801494502D90320BDE8F087606845
:1007B000696800F00C00B0EB810FEFD1306800F0F9
:1007C0000700B8420BD9306820F00700384330608A
:1007D000306800F00700B84201D00120E5E7287832
:1007E000400705D56068E96820F4E0600843606070
:1007F0002878000706D56068296920F4605040EA2F
:10080000C100606000F038F86168084AC1F3031164
:10081000515CC8400649086006480068FFF706FFBB
:100820000020C2E70020024000100240C02600085D
:10083000B4000020AC000020044805490068496865
:10084000044AC1F30221515CC8407047B400002043
:1008500000100240D0260008044805490068496895
:10086000044AC1F3C221515CC8407047B400002063
:1008700000100240D026000812A185B00FC98DE8F3
:100880000F0014A0144A006804905168134801F046
:100890000C03042B10D0082B0ED1C1F38343C903E2
:1008A0001DF803000AD5516804AAC1F34041515C08
:1008B0000A4A5043B0FBF1F005B07047084948437D
:1008C000FAE7000002030405060708090A0B0C0DED
:1008D0000E0F1010010200000010024000127A00FA
:1008E00000093D002DE9F84F040070D02078C04D7C
:1008F000C00749D06868C0F38100012807D0686844
:10090000C0F38100022809D16868C00306D52868B1
:10091000800339D560680028E7D035E06068B0F51D
:10092000803F0BD010B1B0F5A02F11D0286820F473
:1009300080302860286820F4802002E0286840F495
:1009400080302860606890B1FFF758FE06460AE0E4
:10095000286840F480202860F0E700BFFFF74EFED3
:10096000801B642873D828688003F7D50CE0FFF754
:1009700045FE064605E000BFFFF740FE801B6428E9
:10098000F0D828688003F7D420789A4E80074FF07B
:1009900001094FF0000839D5686810F00C0F07D036
:1009A0006868C0F38100022809D16868C00306D4D2
:1009B0002868800714D52069012808D110E0206933
:1009C000B0B1C6F80090FFF719FE074605E00AE14E
:1009D000FFF714FEC01B0228C4D828688007F7D58B
:1009E0002868616920F0F80040EAC10028600DE045
:1009F000C6F80080FFF702FE074604E0FFF7FEFDA1
:100A0000C01B022823D828688007F7D42078000765
:100A10002CD57948A169D9B1C0F80090FFF7EEFD57
:100A2000074604E0FFF7EAFDC01B02280FD8686AFA
:100A30008007F7D571484FF4FA510068B0FBF1F028
:100A4000009000BF0098411E0091FAD20EE080E0B5
:100A5000C0F80080FFF7D2FD074604E0FFF7CEFDA7
:100A6000C01B022875D8686A8007F7D42078400731
:100A700060D5E8690027C00008D4E86940F08050DC
:100A8000E861E869012700F0805000905C48016847
:100A9000C90513D40168834641F480710160FFF7F2
:100AA000ADFD824606E000BFFFF7A8FDA0EB0A00FF
:100AB00064284ED8DBF80000C005F5D5E0680128B1
:100AC0000AD008B1052813D0286A20F00100286256
:100AD000286A20F0040002E0286A40F00100286241
:100AE000E06841F2883B98B1FFF788FD82460BE051
:100AF000286A40F004002862EEE700BFFFF77EFDA1
:100B0000A0EB0A0159455AD8286A8007F6D50CE0AF
:100B1000FFF774FD824605E0FFF770FDA0EB0A01C8
:100B200059454CD8286A8007F6D41FB1E86920F0EF
:100B30008050E861E06988B36968C1F381010229E6
:100B400044D00228C6F8608004D0FFF757FD044661
:100B500038E034E0FFF752FD074604E0FFF74EFDB2
:100B6000C01B02282BD828688001F7D4206AB0F572
:100B7000803F05D16868A16820F4003008436860B0
:100B8000D4E908010843696821F4741108436860D6
:100B9000C6F86090FFF732FD044606E025E000BF8E
:100BA000FFF72CFD001B022809D828688001F7D523
:100BB0001BE000BFFFF722FD001B022802D9032023
:100BC000BDE8F88F28688001F4D40EE00128F7D042
:100BD0006868226A00F48031914204D1616A00F4AD
:100BE0007010884201D00120EAE70020E8E7000009
:100BF000001002400000424280044242B400002043
:100C00000070004010B5401EB0F1807F01D301207C
:100C100010BD4FF0E02460610F21601700F072FCFE
:100C20000020A06107202061002010BD70B50400E5
:100C300004D094F83900002510B106E0012070BD01
:100C400084F83850204600F023F8242084F8390036
:100C50002068C16821F40051C160204600F0B2FB59
:100C60002068016921F4904101612068416921F007
:100C70002A0141612068C16841F40051C160E56307
:100C8000202084F8390084F83A00002070BD00006C
:100C900030B585B000240094019402940394006858
:100CA0001449884224D11448816941F4804181610A
:100CB000816901F480410491816941F004018161FD
:100CC00080690E4D00F0040004904FF40070009015
:100CD000022001900320039069462846FFF784FB19
:100CE0002815CDE90004694628460294FFF77CFBED
:100CF00005B030BD0038014000100240000801403E
:100D00002DE9F843044690F839001F4616460D4673
:100D100020284CD1C5B1BEB194F83800012846D086
:100D2000012084F838004FF00008C4F83C802120EE
:100D300084F83900FFF762FCA6848146E684A06847
:100D4000B0F5805F03D004E00120BDE8F88320699E
:100D500028B12E465FF0000584F838800EE00026AA
:100D6000FAE78021204600F089FBA0B9AEB116F861
:100D7000010B21684860E08C401EE084E08C4B460B
:100D80004FF0000200970028EBD14FF040012046C1
:100D900000F074FB30B10320D7E735F8020BC0F345
:100DA0000800E6E7202084F839000020CDE7022083
:100DB000CBE7FEE74218491E521E824202D922EAC0
:100DC00001007047884370474268C1E900024268E9
:100DD000116041607047D0E900121160D0E9001243
:100DE0004A6000214160016070470068FFF7ECBF76
:100DF00000F016BF70B50C4605000AD04CB101F0EA
:100E00008FF9012807D02146284600F027FF012846
:100E100001D0012070BD002070BD7FB582B01C469E
:100E20000D46064604AA01F041F9002806D1032127
:100E300004AB2A463046009401F084F806B070BD39
:100E400010B5FFF7B5F9044601F006F80A4928384D
:100E500048600968814202D00848008820B12046D5
:100E6000BDE81040FFF7ACB92046FFF7A9F9BDE88F
:100E70001040FFF7A8B90000440000202400002023
:100E800070B5044600F034F8002829D1174D2068C9
:100E9000C0EBC000E96800EB400001EB8004FFF705
:100EA00087F90646A08820F0020040F00400A080E8
:100EB000E18804F1280000F0A5FF00F0CDFF05F166
:100EC000200128384860EA695AB12A884AB9096875
:100ED000814206D03046FFF773F901F001F9002096
:100EE00070BD3046FFF76CF9F9E7000024000020E0
:100EF0002DE9F0470D465FEA00084FF0FF3A16D0A3
:100F0000C5B12869C8B12968D1B1AA8846481F2A45
:100F10000BD802D1454A914207D14549454AE86874
:100F2000511A88420FD940481D30BDE8F0873E482D
:100F3000001DFAE73C48801EF7E73B48801CF4E7B9
:100F40003948401CF1E710B94FF43470E8600821CB
:100F5000FFF730FFE860B0F5987F02D23248C01C3E
:100F6000E3E7FFF725F906464FF00009324C10E0A1
:100F7000A1F128070846FFF72EFF2F4807F12801A7
:100F80000838FFF721FF2A48F968FFF733FFC7F851
:100F90000C906168A142EBD1274908394868884222
:100FA00002D1214C0E3439E0A0F12804FFF713FFE1
:100FB0003046FFF705F9276908221D48E968FFF761
:100FC00017FF060020D002463846E96801F034FBDE
:100FD0002060A868E6602062E868C4F81890C4F849
:100FE0001C900221A060A180A988E1802968C4F832
:100FF0003CA0C4F8489061612969C4F850906162CE
:101000000020C8F8007090E7FFF7D2F806460A48BB
:1010100004F128010838FFF7D7FE084C3046FFF7E7
:10102000CFF8204681E7000003020002C51D00083A
:101030004005002000A000205C000020000200030A
:1010400070B5054600F0BFFE08B1154870BD1548E3
:10105000008808B1144870BDEDB1FFF7A9F8114C34
:10106000064620342068283000F0B0FE20688188D1
:1010700021F0040181802946206801F099F9206857
:10108000818841F0200181803046FFF799F8FFF711
:10109000D7FE002070BDBDE8704000F0C9B8000068
:1010A0000D020003240000200E0200022DE9F0478B
:1010B000494D07464FF0FF3A6869874202D14748D9
:1010C000BDE8F087A869874202D144480D30F7E7B0
:1010D0002869874202D341480D38F1E7FFF768F8E5
:1010E0008046C7EBC700E96800EB400001EB8004D5
:1010F000A688F00706D0394C40460A3CFFF760F856
:101100002046DDE7F0064FF0000903D5288808B136
:10111000A5F80090700708D504F1280000F056FEED
:10112000A08820F00400A08007E042F208000642F8
:1011300003D004F12800FFF74EFE16F0600F02D036
:10114000204601F043FAA08820F0020040F00100A0
:10115000A080C4F83CA0C4F8489000F07DFE1E4E6C
:101160004FF0010A2036283870602079C0061FD55C
:1011700004F1280106F11800FFF737FE2869E96835
:10118000C0EBC00000EB400001EB80003060076165
:101190003168A08888803068E168C160616A416216
:1011A000A4F804A04046FFF70BF800F099FF10E008
:1011B0000948A4F804A004F128013030FFF704FE28
:1011C0000748E168FFF716FE4046C4F80C90FEF7AA
:1011D000F7FF002074E70000240000201402000242
:1011E0004005002010B5FEF7E3FF044A1188491CB2
:1011F0001180BDE81040FEF7E3BF0000240000208E
:1012000010B5FEF7D5FF09490A8822B1521E120413
:10121000120C0A8003D0BDE81040FEF7D1BFFEF7E4
:10122000CFFFBDE81040FFF70BBE000024000020F8
:1012300070B5194CA4F1200220681269016991422D
:1012400001D3164870BD0079400701D4002070BD5D
:10125000FEF7AEFF05462068C08800F0EBFD0128D0
:1012600013D920682830FFF7B6FD2068818841F047
:10127000040181802068C188283000F0C3FD284621
:10128000FEF79EFFFFF7DCFDE0E72846FEF798FF3C
:101290000248093070BD000044000020070200022F
:1012A00030B585B00024184800940194029403944A
:1012B000816941F010018161816901F0100104919F
:1012C000816941F004018161816901F004010491A7
:1012D000816941F00801816180690C4D00F00800CE
:1012E0000490002220212846FFF782F92020009058
:1012F0000120CDE901040220039069462846FFF74A
:1013000073F805B030BD000000100240000C014031
:101310000C4810B50A4901604FF4E13141600021E9
:1013200081600C22C160C0E904128161C161FFF7D4
:101330007DFC002803D0BDE81040FFF703B810BDC6
:1013400000380140FC000020FEE7704770470000B5
:101350000648006808B101F025B90548D0E9001237
:10136000491C42F10002C0E9001270476C000020E5
:101370007800002030B58FB028216846FEF7B4FF12
:1013800014210AA8FEF7B0FF01210804CDE90010DE
:101390000024029402250491CDE907504FF4E01097
:1013A00009906846FFF79EFA0F20CDE90A0568020A
:1013B000CDE90C4002210AA80E94FFF7A7F90FB05F
:1013C00030BD704770B5044600680169E26821F4D9
:1013D0004051114301612169A068084361690843D4
:1013E0002168CA6841F20C639A430243CA602068CC
:1013F0004169A26921F44071114341611E4920688D
:10140000884202D1FFF728FA01E0FFF715FA00EB56
:10141000C00101EB0012606864218000B2FBF0F3B0
:10142000B3FBF1F36FF018067343B2FBF0F5B2FBB8
:10143000F0F605EB8305322303EB0515B5FBF1F55B
:10144000B6FBF1F605F0F00505EB0615B2FBF0F67C
:10145000B2FBF0F0B0FBF1F06FF01802504306EB76
:10146000800003EB0010B0FBF1F0216800F00F00EA
:101470002844886070BD0000003801402DE9F0412B
:10148000984617460E460446069D1DE0681C1BD074
:101490002DB1FFF7B3F8A0EB0800A84214D92068DB
:1014A000C16821F4D071C1602068416921F0010157
:1014B0004161202084F8390084F83A00002084F843
:1014C00038000320BDE8F0812068006836EA00009B
:1014D00004D00020B842D9D00020F3E70120F9E77A
:1014E000FEE700000FB4054B10B503A9044A0298AB
:1014F00000F028F810BC5DF814FB0000A9190008E2
:10150000B80000200907090E002804DB00F1E020E4
:1015100080F80014704700F00F0000F1E02080F820
:10152000141D704702E008C8121F08C1002AFAD132
:1015300070477047002001E001C1121F002AFBD153
:10154000704700002DE9FF4F8DB00F46054600267D
:1015500006E025280BD0DDE90F1290476D1C761CA4
:1015600028780028F5D111B03046BDE8F08F00246E
:10157000A246A1460122EC4900E0044315F8013FD0
:10158000203B02FA03F00842F7D128782A2810D02D
:101590006FF02F022878A0F13001092914D80AEB46
:1015A0008A0102EB410144F0020400EB010A6D1CC8
:1015B000F0E701CF5FEA000A03D544F40054CAF112
:1015C000000A44F002046D1C28782E2817D115F863
:1015D000010F44F004042A280ED06FF02F0228785F
:1015E000A0F1300109290AD809EB890102EB410178
:1015F00000EB01096D1CF2E757F8049B6D1C28787D
:101600006C280FD006DC4C2817D068280DD06A282B
:1016100014D104E0742810D07A280FD10DE044F4DE
:1016200000140AE044F4801401E044F440146978A2
:10163000814202D104F580146D1C6D1C2A786E2A3B
:101640001FD00CDC632A31D004DC002A8BD0582A4E
:1016500011D1A3E0642A68D0692A0CD165E0732A0D
:101660002ED004DC6F2A73D0702A04D19BE0752A37
:101670006FD0782A6ED01046DDE90F129047761CA5
:1016800050E1C4F30250022806D0032809D00428F0
:1016900001CF09D0066045E101CFF117C0E9006133
:1016A00040E101CF06803DE106703BE117F8040BF5
:1016B0008DF8000000208DF80100EB46012003E0CA
:1016C00057F804BB4FF0FF3061074FF0000102D420
:1016D0000DE008F10101884649450FDA8045F8DB45
:1016E0001BF808100029F4D108E008F10101884630
:1016F0008142FADB1BF808100029F6D1DDE90F233F
:10170000AAEB08008146214600F036F9304400EB90
:10171000080604E0DDE90F121BF8010B9047B8F151
:101720000108F7D221464846F7E00A21C4F30253E4
:101730004FF0000B0891022B04D001CFC117032BEF
:1017400009D00AE0FF1D27F00707F7E8020108E0CB
:1017500032E01FE020E000B2C117042B01D140B2FB
:10176000C117031E71F1000307DA4FF0000CD0EB34
:101770000C006CEB01012D2302E0230504D52B2383
:101780008DF82430012303E0E30701D02023F7E79D
:10179000984658E00A2110E010210EE010204FF08A
:1017A000000B08900CE010214FF0000B44F00404F3
:1017B0004FF00809089103E008214FF0000B089151
:1017C000C4F30253022B04D001CF0021032B06D017
:1017D00006E0FF1D27F00707F7E8020103E080B2EB
:1017E000042B00D1C0B24FF0000823072BD5702A7C
:1017F00007D0DDF820C08CF0100C5CEA0B0C05D093
:101800000EE040238DF82430012308E050EA010364
:1018100006D030238DF824308DF8252002239846F9
:10182000DDF820C08CF0080C5CEA0B0C0BD150EA00
:10183000010301D1630706D530238DF824304FF022
:101840000108A9F10109582A04D038A20B9208AA6C
:101850000A920BE03AA2F9E75B46089AFEF7EAFC27
:101860000B9B9B5C0A9A521E0A92137050EA01026B
:10187000F2D10A98ADEB000000F1200B600702D511
:1018800024F4803401E04FF00109D94502DDA9EBD1
:101890000B0000E0002000EB0B0141440890AAEB94
:1018A000010AE00306D4DDE90F232146504600F08B
:1018B00063F806444FF0000908E009A911F809008F
:1018C000DDE90F12904709F10109761CC145F4DBEF
:1018D000E0030CD5DDE90F232146504600F04CF81B
:1018E000064404E0DDE90F1230209047761C089989
:1018F000481E08900029F5DC08E00A980A9900784B
:10190000491C0A91DDE90F129047761CBBF10001DA
:10191000ABF1010BF1DC21465046DDE90F2300F06D
:1019200019F806446D1C1BE60928010030313233DA
:10193000343536373839616263646566000000000B
:1019400030313233343536373839414243444546F5
:10195000000000002DE9F041044600251E46174610
:10196000880404D405E039462020B0476D1C641E6D
:10197000F9D52846BDE8F0812DE9F041044600255F
:101980001E469046C80301D5302700E02027880472
:1019900004D505E041463846B0476D1C641EF9D5B4
:1019A0002846BDE8F081000013B50A2301226946EC
:1019B0000248FFF7A5F900981CBD0000FC000020BC
:1019C00070B51C4886B0D0E90045FEF71DFEFFF754
:1019D000D1FCFFF765FCFFF79BFC17A0FFF782FD2A
:1019E000FFF700FC194800900820ADF8040018A08B
:1019F00004904FF43470039069461848FFF740FA9A
:101A000038B1FFF7FDFB16A0FFF76CFD06B0012013
:101A100070BD1BA0FFF766FDFFF7F2FB4FF4FA66FF
:101A2000A4B221462846FEF7DBFD3046FEF7CAFC8D
:101A3000F7E70000B8260008626567696E207465E4
:101A4000737420756172740D0A0000004903000868
:101A5000484947485F4E414D45000000A400002022
:101A60004578616D706C655F5461736B4869206384
:101A70007265617465204661696C6564210D0A00B8
:101A80004578616D706C655F5461736B4869206364
:101A900072656174652053756363657373210D0A04
:101AA0000000000010B586B0044614216846FEF719
:101AB0001BFC6946204600F061F906B010BD4A09DA
:101AC00000EB82020068121D884206D901F01F0354
:101AD00001211068994088431060704702688A426B
:101AE00001D8002070474A0900EB820001F01F0274
:101AF0004068012191400840F4D001207047000067
:101B00002DE9F04100240D46274606005ED0FEF781
:101B10004FFB8046ED1C25F00305706810E041681E
:101B20004A000CD421F04041A94208D324B1626894
:101B300022F040428A4202D90446A94221D00068DC
:101B40000028ECD1ECB3606820F04040401B08282E
:101B500017D9621952F80C0F20F0804042F804099E
:101B60006168491B083961F31D00C2E90040214644
:101B7000304600F0F7F828B30260606865F31D0096
:101B8000606054F8040F20F0004040F0804001C431
:101B9000144827468168294408318160C26891420F
:101BA00000D9C1600168491C01607068406820F07C
:101BB0004040B0F5806F02D23046FFF773FF4046D9
:101BC00001E005E00CE0FEF7FBFA3846BDE8F081E5
:101BD00005A0FFF787FC294605A0FFF783FCE4E793
:101BE0007260CAE7940000205B4552525D200000FD
:101BF00074686572652773206E6F7420656E6F75EB
:101C000067682077686F6C6520746F20616C6C6FFB
:101C100063202578204279746573210A0000000052
:101C200070B5144628B121B1042C02D3651E2C4294
:101C300001D0002070BD2144091FFFF761FF00287B
:101C4000F8D00119491EA9438842F3D0081A40F080
:101C5000004041F8040C084670BD00002DE9F04139
:101C600001260C46050018D0BCB154F8040C00281D
:101C700002DA20F000400C1A2868A04203D86868F5
:101C80000830A0420BD22FA0FFF72CFC21462FA03A
:101C9000FFF728FC0020BDE8F0810120FBE7FEF7FC
:101CA00087FAA4F108020746506840000ED528685C
:101CB00090420DD01168814208D368680830814293
:101CC00004D8284600F04EF8904201D0002634E0B7
:101CD0005068234B20F08040506020F040409968CD
:101CE00000F108048C4204D8081A0838986000E013
:101CF0000246106880B141684900F9D50CE054688B
:101D00004FEAB47404EB810120314FEAB101516014
:101D10006968814200D16A601146284600F022F8C5
:101D200010B141684C00EAD51146284600F01AF877
:101D300000B102605868401C58603846FEF740FA0F
:101D40003046A8E75B4552525D2000003078257888
:101D5000206F7574206F662072616E6765210A00BE
:101D6000940000204068884201D1002070474868F4
:101D700020F04040084408307047000030B5002291
:101D800078B171B1436807E05C68650003D524F061
:101D90004044224408321B68002BF5D183689342EB
:101DA00001D2012030BD4A6080680860801A8860D6
:101DB00003480268CA6040680861002030BD000026
:101DC00094000020FEE7EFF305807047D0E9001291
:101DD0001160D0E900124A6000214160016030F8D2
:101DE000221C0748426802EBC1025368934205D1A6
:101DF0004FF00042CA400168914301607047000003
:101E0000000000200A4B10B55A6802EBC10254686A
:101E1000944205D14FF00044CC4019680C431C603B
:101E200011684A68C0E900124A681060486010BD35
:101E3000000000200749034600204A6802EBC30166
:101E400002EBC302496801E04968401C8A42FBD1A9
:101E500070470000000000200548016831B140686B
:101E6000B1FA81F100EBC100406870470020704773
:101E7000000000202DE9F0411E460446134611F0F3
:101E800003004FF000050BD0012812D0032817D013
:101E900022A0FFF727FBBDE8F04122A0FFF722BBFD
:101EA000A089E788421CBA4201D1A58110E0A28135
:101EB0000EE0A08900B9E088401EA08180B207E052
:101EC000E089E788421CBA4201D1E58100E0E28165
:101ED0002289256800FB025548074FEAC17007D5E3
:101EE00018B118682860BDE8F08128681860FAE722
:101EF00050B1194628463268FEF7DDF920892D1FBA
:101F0000284431680160EEE7281F10442946046820
:101F100018462246FEF7CFF93460E4E75B4552529B
:101F20005D200000696E76616C696420717565756D
:101F300065206F7065726174652074797065210A1F
:101F4000000000002DE9FF5F9A460F460446002579
:101F500001F00106DDF838B0FEF72AF94F49814655
:101F600004EB4400096800EBC40001EB8004A08886
:101F700050B1F8072089DAF80010A0F1040006D06B
:101F8000814209D9464D83E0454D0B3D80E08142B9
:101F900002D2434D0A357BE004EB4600018A91B141
:101FA000491E0182534639462046029AFFF762FFD6
:101FB000002E37D04FF0000004EBC000816934D10F
:101FC0004FF0010032E0BBF1000F05D0354800882A
:101FD00050B1334D0F3D5BE0F80702D0304D6D1C22
:101FE00056E02F4D083553E02F485A464FF4005124
:101FF000D0F8008004EBC600143000F08DFA48469B
:10200000FEF7DEF8FEF71CFFFEF7D2F88146B8F8BF
:1020100004004106C6D5224D20F04001A8F8041066
:102020000E3D35E04FF00100C6E7002004EBC00094
:102030001430814215D096B15FF0000004EBC0006F
:102040004FF400518069283800F08CFA4846FEF7BA
:10205000B7F8FEF7F5FE002004B0BDE8F09F0120C0
:10206000ECE7002E0CD04FF0000000BF04EB400066
:10207000008A00F1010080B205D14FF0010104E0B7
:102080004FF00100F2E74FF0000104EB410108823C
:102090004846FEF795F82846DEE700008800002055
:1020A00015060002240000204400002010B50A2874
:1020B00001D30A4810BD41B1106848B15BB1FFF7C8
:1020C00082FE40B10548401F10BD0448001D10BDF0
:1020D0000248401D10BD002010BD00000E06000289
:1020E000FEF771B810B503464068081A1968B0FBCE
:1020F000F1F4B0FBF1F201FB120068B998680168D5
:10210000A14209D92146FFF7E9FC28B12146986888
:10211000FFF7D5FC012010BD002010BD1030704726
:102120002DE9F0410C46FFF7F9FF074634F8040D9E
:102130000026A0F55E413546DE391ED194F8020036
:1021400007EB05110968884214D8FEF731F807EB50
:10215000051580462146E868FFF7C4FF012803D132
:10216000A8680126401EA8604046FEF729F83046C0
:10217000BDE8F0816D1C042DE2D30020F8E70000DB
:102180002DE9FC4F0023591E019100910169C160A6
:10219000017A5B4C01F00F065A4D54F826104FF0AF
:1021A000030B4FF01009AD694A461F46DC46BBEBF6
:1021B000517F68D141F0004144F8261021F07F4A58
:1021C0000021A6465EF821C03CF07F442ED0B142EB
:1021D0002CD0BBEB9C7F29D1D446544506D3B4FB0D
:1021E000FCF80AFB184CBCF1000F0AD0D446544549
:1021F0001CD2BCFBF4F804FB18ACBCF1000F0BD0F4
:1022000014E0B4FBFAF8DDF804C0E0450ED2B4FBEC
:10221000FAF48946019409E0BAFBF4F8DDF800C04D
:10222000E04503D2BAFBF4F200920A46491C89B297
:102230001029C7D33349B9F1100F09691AD0C9EB76
:10224000C9042A4601EB840106E0D4680E892744BC
:102250001489B44203D01268002AF6D134E062B384
:102260001169CC1B0169B4FBF1F201FB1242891A1E
:10227000C16029E0102A27D00023C2EBC202C3604C
:1022800001EB82031EE00222B2EB517F1CD141F030
:10229000004144F82610294662460CE00E690769A1
:1022A000BE4207D10E7A06F00F0654F82660B2EB54
:1022B000967F03D009680029F0D105E021B1002202
:1022C0000B46C26019680BE0294607E0CA68C4687B
:1022D000A24205D8A21A0B46C26009680029F5D1AE
:1022E000016019B1CA68C468121BCA6023B11860C2
:1022F00002210171BDE8FC8F02498861F8E7000006
:10230000BC000020080000207CB5184D26E02068A5
:10231000A861A069009060690190002308226946C5
:10232000E868FEF77AFD607920B1012810D0022814
:1023300014D111E0204600F01BF820894FF6E0711F
:10234000884201D2103001E000F00F00208105E04A
:102350002046FFF715FF01E001202071AC69002C39
:1023600002D0E0680028D2D07CBD00000800002028
:1023700006494A690260486100210171007A044AF5
:1023800000F00F0042F82010704700000800002005
:10239000BC000020054810B5806928B1C168491EFD
:1023A000C16001D1FFF7B0FF002010BD0800002080
:1023B000F0B4024611F01F034FEA511000D1401E45
:1023C000916B1B4C01F0784101432079184400F0D7
:1023D0001F0060F3DF619163216801EBC00302F12C
:1023E00030015868984201D118461DE03038956B8D
:1023F000876B25F0784427F07846A6420AD8A41BBC
:1024000005F078452C439463446BA4F130009C4262
:10241000EDD108E027F0784325F078429A1A07F0CA
:1024200078431A4382633030F0BCFEF7DEBC000014
:102430006400002070B5094DC0EBC00000EB400007
:10244000E96801EB80046169206A884700202880E0
:102450002069BDE87040FEF729BE0000240000207E
:1024600072B6FEE72DE9F0412A4800270179491CA0
:1024700001F01F018180006800EBC1056C68AC426F
:1024800045D0303C04F13000A84206D0A06BA688AD
:10249000400108D0A06B401EA063002F37D0BDE8DC
:1024A000F041FEF7CDBC04F13000FEF794FC30079C
:1024B0000BD5A08820F00800A08004F12800FEF7CA
:1024C0008AFC0020A061E06113E0700503D5A088BC
:1024D00020F480600CE0B00407D504F12800FEF77A
:1024E0007AFCA08820F4005002E0A08820F02000B0
:1024F000A080B00709D4A08840F00400A080E18843
:1025000004F12800FFF77EFC01276C68B9E7BDE8FD
:10251000F0810000640000202DE9F0418046104861
:1025200016460F46046804F128000546FFF74EFCE6
:10253000A088294620F004003843A0804046FEF7DA
:1025400054FC701C09D0A088314640F04000A080A7
:102550002046BDE8F041FFF72BBFBDE8F081000049
:102560004400002070B5044628300D460646FEF7AC
:1025700032FCA088A843A080400606D5204600F083
:1025800025F8A08820F04000A080A088810708D40A
:1025900040F00400A080E1883046BDE87040FFF7BD
:1025A00031BC70BD084810B5D0E90221521C41F180
:1025B0000001C0E9022100F023F8FFF753FFBDE856
:1025C0001040FFF7E7BE00007000002030B40B4B56
:1025D000826B1B68D10E03EBC103416B994209D09A
:1025E0008B6822F0784223F07844224403F0784349
:1025F0001A438A6030BC3030FEF7EDBB6400002027
:102600000B480A4902680B480B680068934204D0E3
:102610000A60CB88421E1A448A808A8880B282422D
:1026200003D100200860FEF703BE70478000002041
:10263000440000207800002070B5144605460E4680
:102640004FF0CA322046FDF748FE4FF0CC302060F4
:10265000A0194FF0043140F8441D4FF0053141609E
:102660004FF0063181604FF00731C1604FF0083103
:1026700001614FF0093141614FF0103181614FF03C
:102680001131C1610021C0E908154FF001318162AB
:102690004900C1624FF0033101634FF012314163D1
:1026A000034981630349C1634FF08071016470BDC8
:1026B000612400083524000820000000000C0140BF
:1026C00000000000000000000102030406070809E2
:1026D0000000000001020304F826000800000020AA
:1026E000BC00000024150008B4270008BC0000202E
:1026F0008404000034150008000000000000000001
:1027000000000000000000000000000000000000C9
:1027100000000000000000000000000000000000B9
:1027200000000000000000000000000000000000A9
:102730000000000000000000000000000000000099
:102740000000000000000000000000000000000089
:102750000000000000000000000000000000000079
:102760000000000000000000000000000000000069
:102770000000000000000000000000000000000059
:102780000000000000000000000000000000000049
:102790000000000000000000000000000000000039
:1027A0000100000010000000000000000024F40000
:0427B0000000000025
:0400000508000131BD
:00000001FF
